:08000000803102288731E92F4D
:10000A0016302100970008007408803AF500803005
:10001A007502031D122801307302031815281628C9
:10002A0022287309F5007409F600F50A0319F60A7D
:10003A007508F3007608F400222808000830230027
:10004A009F0080309D0024309E0067309B009C01F9
:10005A000030F0000030F1008F317A278031003013
:10006A00F0000030F1008F31802780310030F0003D
:10007A000030F1008F31742780312100BB01080064
:10008A002000A300A101A2015D282008FB00FC01B9
:10009A007B08F2007C08F3007A08FD007D08F40072
:1000AA008031CA20803101302000A1070030A23DF2
:1000BA0021082307FB007B08860087010108FC0052
:1000CA007C08A0002008031D6B286C284A28080019
:1000DA008F31B12780312100A801A90185319625E8
:1000EA00803102302000EF000430EE00BA30890B74
:1000FA007C28EE0B7C28EF0B7C280000FF302100C7
:10010A00A807FF30A93D2908803A2000EE00803078
:10011A006E02031D9328013021002802031C962831
:10012A0097287328803102282000E3005F08E50041
:10013A005E08E4002100A001A101B7286430E100B3
:10014A006108CE006008E2006208CF0063088131CE
:10015A006221803120004E082100A00720004F08AC
:10016A002100A13D20006408840065088500120072
:10017A00031DC028C128A328210021082000DF0070
:10018A00210020082000DE00080074080319CE2888
:10019A00CF28D4287408031DD328D428D928720854
:1001AA008F318627803108297408033E860087012B
:1001BA00160001040319E228E32800297408033E03
:1001CA0086008701403FF500413FF600740A860029
:1001DA008701403FF700413FF8007808803AF9006C
:1001EA007608803A7902031DFC28750877020318FD
:1001FA00FF2800290829740A86008701013081072F
:10020A0041310318810A08002000AC002100261C95
:10021A000F291029192920002C08A7002708FA00FD
:10022A0024088031452081312000A61B1D291E2962
:10023A0023292608AB002508AA002529AA01AB0113
:10024A00A801A90139292030F2000030F30020006A
:10025A002C08A7002708F4008031CA208131013018
:10026A002000A8070030A93D2908803AA7002B08DA
:10027A00803A2702031D43292A082802031C46291B
:10028A0047292829210026184B294C2955292000BD
:10029A002C08A7002708FA0024088031452081315C
:1002AA00200024088F31E727813120002A087007AF
:1002BA00A4002B08713DA50008002000DD004E08AF
:1002CA0086008701403FD000413FD100500884009A
:1002DA00510885001200253A031D74297529192A27
:1002EA004E08860087010130810741310318810ACF
:1002FA002100A201A301A601A701FF30A400FF303B
:10030A00A50020004E0886008701403FD000413FEB
:10031A00D10050088400510885001200643A03197C
:10032A0097299829A9294E0886008701403FD000BD
:10033A00413FD10050088400510885001200693AF3
:10034A00031DA829A929E4294E088600870101303E
:10035A00810741310318810A4F0886008701010885
:10036A008400850102308107003FD000013FD1009F
:10037A005008D5005108D600890D893B8909D70054
:10038A00D800D900DA00DB00DC005508B0005608B6
:10039A00B1005708B2005808B3005908B4005A0807
:1003AA00B5005B08B6005C08B7005D0884312824F4
:1003BA00813120003108CF003008CE003C2A4E0897
:1003CA0086008701403FD000413FD1005008840099
:1003DA00510885001200253A031DF429F5290E2A31
:1003EA004E08860087010130810741310318810ACE
:1003FA002530F2000030F3005D08D0005008F40008
:10040A008031CA20813101302000CE000030CF0077
:10041A003C2A4E08860087010130810741310318C2
:10042A00810ACE01CF013C2A4E0886008701403F4F
:10043A00D000413FD10050088400510885000008CF
:10044A00D200D3015208F2005308F3005D08D40029
:10045A005408F4008031CA20813120004E088600F9
:10046A0087010130810741310318810A082A0800EF
:10047A00F2012830860000308700473FF000F01F65
:10048A00472A482A692A2000A809A909AA09AB0902
:10049A00AC09AD09AE09AF09A80A031D672AA90A62
:1004AA00031D672AAA0A031D672AAB0A031D672AC6
:1004BA00AC0A031D672AAD0A031D672AAE0A031D8B
:1004CA00672AAF0AF201F20A20308600003087005C
:1004DA00473FF000F01F722A732A922A2000A009CF
:1004EA00A109A209A309A409A509A609A709A00A9D
:1004FA00031D922AA10A031D922AA20A031D922A07
:10050A00A30A031D922AA40A031D922AA50A031DFF
:10051A00922AA60A031D922AA70A2000200821046B
:10052A0022042304240425042604270403199E2AEA
:10053A009F2AF22AF101F10AAE2AA035A10DA20DD5
:10054A00A30DA40DA50DA60DA70D0130F00070088E
:10055A00F107A71FB12AB22AA22A27082F02031DD0
:10056A00D02A26082E02031DD02A25082D02031D93
:10057A00D02A24082C02031DD02A23082B02031D8B
:10058A00D02A22082A02031DD02A21082902031D83
:10059A00D02A20082802031CD32AD42AE42A2008B5
:1005AA00A8022108A93B2208AA3B2308AB3B24083E
:1005BA00AC3B2508AD3B2608AE3B2708AF3BA73628
:1005CA00A60CA50CA40CA30CA20CA10CA00C013027
:1005DA00F102031DF12AF22AB22A72080319F62A35
:1005EA00F72A152BA809A909AA09AB09AC09AD096B
:1005FA00AE09AF09A80A031D152BA90A031D152B5D
:10060A00AA0A031D152BAB0A031D152BAC0A031DE1
:10061A00152BAD0A031D152BAE0A031D152BAF0AA8
:10062A0020002808A0002908A1002A08A2002B08F7
:10063A00A3002C08A4002D08A5002E08A6002F0848
:10064A00A7000800F2012030860000308700473FEB
:10065A00F000F01F312B322B532B2000A009A109E7
:10066A00A209A309A409A509A609A709A00A031DA5
:10067A00512BA10A031D512BA20A031D512BA30AB8
:10068A00031D512BA40A031D512BA50A031D512B2F
:10069A00A60A031D512BA70AF201F20A2830860086
:1006AA0000308700473FF000F01F5C2B5D2B802B4A
:1006BA002000A809A909AA09AB09AC09AD09AE0924
:1006CA00AF09A80A031D7C2BA90A031D7C2BAA0AC1
:1006DA00031D7C2BAB0A031D7C2BAC0A031D7C2B50
:1006EA00AD0A031D7C2BAE0A031D7C2BAF0A013019
:1006FA00F0007008F2067330860000308700083078
:10070A00F00000301E00F00B872B20002008210487
:10071A002204230424042504260427040319962BFF
:10072A00972BF32BF101F10AA62BA035A10DA20DEF
:10073A00A30DA40DA50DA60DA70D0130F00070089C
:10074A00F107A71FA92BAA2B9A2BF335F40DF50D48
:10075A00F60DF70DF80DF90DFA0D27082F02031DF6
:10076A00D02B26082E02031DD02B25082D02031D8F
:10077A00D02B24082C02031DD02B23082B02031D87
:10078A00D02B22082A02031DD02B21082902031D7F
:10079A00D02B20082802031CD32BD42BE52B2008AE
:1007AA00A8022108A93B2208AA3B2308AB3B24083C
:1007BA00AC3B2508AD3B2608AE3B2708AF3B73147C
:1007CA00A736A60CA50CA40CA30CA20CA10CA00C79
:1007DA000130F102031DF22BF32BAA2B7208031925
:1007EA00F72BF82B162CF309F409F509F609F70982
:1007FA00F809F909FA09F30A031D162CF40A031D6C
:10080A00162CF50A031D162CF60A031D162CF70AD8
:10081A00031D162CF80A031D162CF90A031D162CA3
:10082A00FA0A73082000A0007408A1007508A20043
:10083A007608A3007708A4007808A5007908A6001E
:10084A007A08A70008002000BF003008C400310859
:10085A00C5003208C6003308C7003408C800350886
:10086A00C9003608CA003708CB0044308600003079
:10087A008700473FB800B81B432C452C0130462C53
:10088A0000302000B900BA013908C2003A08C30092
:10089A00420843040319522C532C712CC409C5096C
:1008AA00C609C709C809C909CA09CB09C40A031D67
:1008BA00712CC50A031D712CC60A031D712CC70AA7
:1008CA00031D712CC80A031D712CC90A031D712C42
:1008DA00CA0A031D712CCB0A2100A51B752C762C84
:1008EA007A2CFD30A605FF30A7052508803A20009E
:1008FA00B80080303802031D852C01302100240203
:10090A000318882C892C8F2C01302000BD00003060
:10091A00BE00972C210025082000BE0021002408D3
:10092A002000BD00210023082000C1002100220868
:10093A002000C00042084304031DA42CA52CAA2CA5
:10094A002100261DA92CAA2CAF2CFF302000C0079D
:10095A00FF30C13D1F302000CC000030CD00210007
:10096A00DB011F2DFF302000CC07FF30CD3D0A30C0
:10097A00A000A101A201A301A401A501A601A7014A
:10098A004408A8004508A9004608AA004708AB0081
:10099A004808AC004908AD004A08AE004B08AF0051
:1009AA0082313D22843120002108F4002008F3001E
:1009BA008031092084317308303E2000B8004C0889
:1009CA00BC3E8600870138088100FF30BD07FF3032
:1009DA00BE3DFF30C007FF30C13D0A30A000A10173
:1009EA00A201A301A401A501A601A7014408A80028
:1009FA004508A9004608AA004708AB004808AC0009
:100A0A004908AD004A08AE004B08AF0083312723DE
:100A1A00843120002008C4002108C5002208C6002D
:100A2A002308C7002408C8002508C9002608CA00E8
:100A3A002708CB0020004D08803AB80080303802E1
:100A4A00031D292D01304C02031C2C2D2D2D5A2D4E
:100A5A0020004408450446044704480449044A045B
:100A6A004B04031D392D3A2DB72C3E08803AB800A5
:100A7A0080303802031D432D01303D020318462DF4
:100A8A00472DB72C20004108803AB8008030380240
:100A9A00031D512D01304002031C542D552D5A2D92
:100AAA002100A618592D5A2DB72C200042084304BC
:100ABA00031D602D612D662D2100261D652D662DD5
:100ACA00822DFF302000CC07FF30CD3D4208430481
:100ADA00031D702D712D762D2B30BB000030BC000C
:100AEA007A2D2D30BB000030BC003B08B8004C0802
:100AFA00BC3E860087013808810020004C08BC3EB5
:100B0A00B8003808A4004108A6004008A5003F081C
:100B1A0081310921843120002508B1002408B00060
:100B2A000800CD2F1930E6009030E7008F31BE273C
:100B3A00853101302100B6000030B7000130B20023
:100B4A000030B30020008D010D1603108C18031419
:100B5A000030093DEC00ED016C082100E2002000A4
:100B6A006D082100E30062036304031DBD2DBE2D41
:100B7A00E62D60086104031DC32DC42DE62D200057
:100B8A000D120D1403302000ED008A30EC005530B0
:100B9A00890BCD2DEC0BCD2DED0BCD2D0032200088
:100BAA000D1003302000ED008A30EC005530890B1F
:100BBA00DC2DEC0BDC2DED0BDC2D00322100BA0113
:100BCA00BA0A6308E1006208E0001A302000EC006B
:100BDA00F830890BEE2DEC0BEE2D0000E82F8D146A
:100BEA000D1121003708B9003608B800542E3630E6
:100BFA002000E6009030E700210039082000E900D3
:100C0A00210038082000E8008F31BE2785310630E0
:100C1A002000ED001330EC00AD30890B122EEC0BE6
:100C2A00122EED0B122E0032031020000C190314A1
:100C3A000030093DEC00ED016C082100B0002000F5
:100C4A006D082100B1002E032F04031D2D2E2E2E18
:100C5A00422E30083104031D332E342E422E043026
:100C6A002000EC006C082100BA003908B7003808E7
:100C7A00B6000B30B8000030B9003108AF003008B8
:100C8A00AE001A302000EC00F830890B4A2EEC0B2B
:100C9A004A2E000001302100B8070030B93D39085A
:100CAA00803A2000EC0080306C02031D5F2E0B306E
:100CBA0021003802031C622E632EFC2D21003A0308
:100CCA00031D682E692EE82F0A30B6000030B700DF
:100CDA0002302000EC006C082100BA00E82F233013
:100CEA00E6009030E7008F31BE27853120008D1055
:100CFA0003108C1903140030093DEC00ED016C0857
:100D0A002100DE0020006D082100DF005E035F0481
:100D1A00031D902E912EBB2E5C085D04031D962E9A
:100D2A00972EBB2E20000D1403302000ED008A30D0
:100D3A00EC005530890B9F2EEC0B9F2EED0B9F2E4E
:100D4A00003220000D1003302000ED008A30EC0044
:100D5A005530890BAE2EEC0BAE2EED0BAE2E0032BB
:100D6A0003302000EC006C082100BA005F08DD00A7
:100D7A005E08DC001A302000EC00F830890BC32E24
:100D8A00EC0BC32E0000E82F0E30E6009030E7008F
:100D9A008F31BE27853120000D118D1521003708AE
:100DAA00B5003608B400672F36302000E6009030D0
:100DBA00E700210035082000E9002100340820005E
:100DCA00E8008F31BE27853106302000ED00133050
:100DDA00EC00AD30890BEF2EEC0BEF2EED0BEF2E66
:100DEA000032031020000C1903140030093DEC00F6
:100DFA00ED016C082100B00020006D082100B1004F
:100E0A002E032F04031D0A2F0B2F1F2F3008310426
:100E1A00031D102F112F1F2F04302000EC006C0827
:100E2A002100BA003508B7003408B600FF30B40014
:100E3A00FF30B5003108AF003008AE001A3020008C
:100E4A00EC00F830890B272FEC0B272F000003103A
:100E5A0020000C1803140030093DEC00ED016C0869
:100E6A002100AC0020006D082100AD002A032B04EC
:100E7A00031D402F412F552F2C082D04031D462FEB
:100E8A00472F552F04302000EC006C082100BA00CF
:100E9A003508B7003408B600FF30B400FF30B5009B
:100EAA002D08AB002C08AA001A302000EC00F830FC
:100EBA00890B5D2FEC0B5D2F0000FF302100B4077A
:100ECA00FF30B53DB51F6A2F6B2FD92E03303A0676
:100EDA00031D702F712F722FBA0120008D11E82F78
:100EEA002D30E6009030E7008F31BE278531200093
:100EFA008D100D158D1103108C1803140030093D47
:100F0A00EC00ED016C082100E20020006D082100D0
:100F1A00E30062036304031D932F942F9C2F600840
:100F2A006104031D992F9A2F9C2FBA01BA0A6308EC
:100F3A00E1006208E0001A302000EC00F830890B6A
:100F4A00A42FEC0BA42F0000031020008C1903140B
:100F5A000030093DEC00ED016C082100DE002000A4
:100F6A006D082100DF005E035F04031DBD2FBE2F45
:100F7A00BB2E5C085D04031DC32FC42FBB2E972E06
:100F8A000030E6009030E7008F31BE278531E82F28
:100F9A0021003A082000EC00ED016D08003A03191F
:100FAA00D72FC52F6C08003A0319972D013A031958
:100FBA00F42D033A0319742E013A0319C92E073A7C
:100FCA000319752FC52F08009F3084008F308500C4
:100FDA00DC3086000030870008308F319227873155
:100FEA00A0308400003085003C308F318C27873157
:060FFA00200080316D288B
:101EE80071082100E5007008E4000800710821006D
:101EF800E9007008E800080071082100E700700890
:101F0800E6000800F10071088F31A7278F3108001B
:101F1800640080010131890B8D2F0034FE0012000E
:101F28001E00FE0B932F00346A302100990098019F
:101F380022009601080001340034013400340134D1
:101F4800003401340034F0002000111EAC2FAD2FF6
:101F5800A82F700823009A0008008F31D0278F31EE
:101F68008F3198278F31803105208F3180312320A0
:101F78008F31080068302000EA006A08EB00670823
:101F8800DF006608DE006B30EA006A08E000003017
:101F9800803199208F310800220090018C018D0139
:101FA8008E01083021009000FF308C008D018E01D9
:101FB80023008D018C01240090018D0121009513CF
:101FC80022009D010800F4007408F2007208F30072
:101FD800F12F0130F2007208F407740886008701B7
:101FE8000108031DF82FF92FED2F73087402F00074
:101FF800F101F01BF10308004E346F3420344134F2
:102008007634613469346C34613462346C346534E8
:102018000A340034633465347234723461346E3493
:1020280064346F340D3409340034633465347234E5
:102038007234613464346F340D34093400346134DB
:10204800623469346534723474346F340D3409344D
:102058000034703461347234613464346F340D3454
:0E20680009340034253464340D340934003456
:020000040001F9
:04000E00E43FFF3E8E
:00000001FF
